:100000000C942A000C943F000C943F000C943F0089
:100010000C943F000C943F000C943F000C943F0064
:100020000C943F000C943F000C943F000C943F0054
:100030000C943F000C943F000C943F000C943F0044
:100040000C943F000C943F000C943F000C943F0034
:100050000C943F0011241FBECFE5D8E0DEBFCDBF1A
:1000600010E0A0E6B0E0E8ECFCE002C005900D92E4
:10007000A639B107D9F70E9441000C9462060C948E
:100080000000CF93DF93CDB7DEB72E970FB6F8946D
:10009000DEBF0FBECDBF83E0898397E09A8321E066
:1000A00030E03C832B838D8396E09E8338872F83BB
:1000B000898795E09A873C872B878D8784E08E8798
:1000C000CE0101960E94DF00CE0105960E94DF005E
:1000D000CE0109960E94DF00CE010D960E942B03EF
:1000E0000E9426010E948E010E94170361E081E0B8
:1000F0000E94E2020E942E012B013C0188E890E060
:100100000E94CC0153014201242D392D4A2D5B2D33
:1001100060E070E080E090E00E94E20183E40E94F1
:1001200044018CE1481651046104710488F4CE0145
:1001300005960E94FC00CE0101960E941101CE019D
:1001400009960E941101CE010D960E94390330C01C
:10015000D301C2014C97A109B1090797A105B105C7
:1001600088F4CE0105960E94FC00CE0101960E9403
:100170001101CE0109960E94FC00CE010D960E944D
:10018000320316C084E2481651046104710480F001
:10019000CE0105960E94FC00CE0101960E94FC0053
:1001A000CE0109960E94FC00CE010D960E943203FA
:1001B00060E472E48FE090E00E945F0595CFCF93FA
:1001C000DF93EC0141E0698188810E9480038A818C
:1001D0009B818130910531F440E0698188810E94E2
:1001E0001B0407C0892B29F441E0698188810E94A2
:1001F0001B04DF91CF910895FC01228133812130CE
:10020000310531F441E0618180810E941B04089531
:10021000232B31F440E0FC01618180810E941B04AA
:100220000895FC01228133812130310531F440E011
:10023000618180810E941B040895232B31F441E0E9
:10024000FC01618180810E941B04089540E060E010
:1002500080E00E9480030E942E05089580E090E0D7
:100260000E9441050E9437050E9439059C01A0E0CB
:10027000BAE00E94C60526EF37E240E050E00E9457
:10028000A405CA01B9010895682F82E00E946003A5
:1002900040E061E083E00E941B0441E060E083E015
:1002A0000E941B0441E062E083E00E941B0468EEB0
:1002B00073E080E090E00E945F0540E062E083E050
:1002C0000E941B0468EE73E080E090E00E945F05EE
:1002D0000895682F82E00E94600340E061E083E0BF
:1002E0000E941B0440E060E083E00E941B0441E0A8
:1002F00062E083E00E941B0468EE73E080E090E01F
:100300000E945F0540E062E083E00E941B0468EE0B
:1003100073E080E090E00E945F0508956FEF82E057
:100320000E94400341E061E083E00E94800341E0DD
:1003300060E083E00E94800341E062E083E00E948D
:10034000800360E573EC80E090E00E945F0588E345
:100350000E94690168EE73E080E090E00E945F0512
:100360008EE00E94690168EE73E080E090E00E94F8
:100370005F0581E00E94690168EB7BE080E090E02E
:100380000E945F0582E00E94690168EB7BE080E0EB
:1003900090E00E945F0508950F931F93CF93FC0197
:1003A0008081882359F08F01C0E00E944401CF5F13
:1003B000F801EC0FF11D80818111F7CFCF911F91D2
:1003C0000F9108952F923F924F925F926F927F927A
:1003D0008F929F92AF92BF92CF92DF92EF92FF9255
:1003E0000F931F93CF93DF93CDB7DEB728970FB648
:1003F000F894DEBF0FBECDBF29833A834B835C8365
:100400006D837E83382E292EA0E00E94560621F4AB
:1004100080E30E944401BDC044244394512C612CCC
:10042000712C812C912C18861F82242D352D462D60
:10043000572D682D792D88859F8101E00E94340613
:10044000822E932E48875F83B62FA72FF82FE92F90
:1004500002E00E943406A22EB32EC42ED52EE62E24
:10046000F72E082F192F282D392D48855F816B2FE6
:100470007A2F8F2F9E2F0E944D0628873F83942E20
:10048000852E762E672E582E492E0F2EFAE0AF2E8F
:10049000F02DB12CC12CD12CE12CF12C00E010E07E
:1004A00029813A814B815C816D817E81832D922DE2
:1004B0000E94D505A884BF80C92CD82CE72CF62C27
:1004C000052D142D0E944D06422E532E642E752E9E
:1004D000862E972E88879F830F2EFAE0AF2EF02D61
:1004E000B12CC12CD12CE12CF12C00E010E02981A1
:1004F0003A814B815C816D817E81832D922D0E949A
:10050000D70529833A834B835C836D837E83382EA2
:10051000292EA0E00E94560609F087CF242D352D04
:10052000462D572D682D792D88859F81A1E00E9449
:10053000560679F10F2EFAE0AF2EF02DB12CC12C1A
:10054000D12CE12CF12C00E010E0242D352D462D8E
:10055000572D682D792D88859F810E94D50580E3D0
:10056000820F0E944401242D352D462D572D682DD4
:10057000792D88859F810E94D705422E532E642EA7
:10058000752E862E972E88879F83A1E00E9456069F
:1005900089F628960FB6F894DEBF0FBECDBFDF9167
:1005A000CF911F910F91FF90EF90DF90CF90BF9070
:1005B000AF909F908F907F906F905F904F903F9003
:1005C0002F900895813029F48FE7860F0E946901EA
:1005D0000895823021F48FEB860F0E9469010895FF
:1005E000EF92FF920F931F93CF93DF93F82EE62E97
:1005F00080E40E946901C0E6D0E008E810E089913B
:100600000E9444010C171D07D1F76E2D8F2D0E94FB
:10061000E202C0E08C2F0E944401CF5FC530D1F7C9
:10062000DF91CF911F910F91FF90EF90089581E09E
:100630000E94690168EE73E080E090E00E945F052F
:10064000089588E00E94690168EE73E080E090E020
:100650000E945F05089541E0FC01618180810E9454
:100660008003089541E0FC01618180810E941B04A8
:10067000089540E0FC01618180810E941B0408957F
:100680008430C0F4813051F028F0823059F083304A
:1006900069F013C06ABB81E090E0089567BB81E018
:1006A00090E0089564BB81E090E0089561BB81E033
:1006B00090E0089580E090E0089580E090E0089553
:1006C0008430C0F4813051F028F0823059F083300A
:1006D00069F013C06BBB81E090E0089568BB81E0D6
:1006E00090E0089565BB81E090E0089562BB81E0F1
:1006F00090E0089580E090E0089580E090E0089513
:10070000843008F086C0813039F138F0823009F445
:1007100042C0833009F45EC07FC0413069F42AB31F
:1007200081E090E002C0880F991F6A95E2F7822B62
:100730008ABB81E090E00895411171C02AB381E045
:1007400090E002C0880F991F6A95E2F78095822396
:100750008ABB81E090E00895413069F427B381E0DD
:1007600090E002C0880F991F6A95E2F7822B87BB41
:1007700081E090E00895411155C027B381E090E0F9
:1007800002C0880F991F6A95E2F78095822387BB84
:1007900081E090E00895413069F424B381E090E075
:1007A00002C0880F991F6A95E2F7822B84BB81E013
:1007B00090E00895411139C024B381E090E002C077
:1007C000880F991F6A95E2F78095822384BB81E0A8
:1007D00090E00895413069F421B381E090E002C0D7
:1007E000880F991F6A95E2F7822B81BB81E090E028
:1007F000089541111DC021B381E090E002C0880F2F
:10080000991F6A95E2F78095822381BB81E090E091
:10081000089580E090E0089580E090E0089580E001
:1008200090E0089580E090E0089580E090E00895E1
:1008300080E090E00895843008F089C0683008F0C6
:1008400089C0813039F138F0823009F442C08330F8
:1008500009F45EC082C0413069F42BB381E090E0BE
:1008600002C0880F991F6A95E2F7822B8BBB81E04B
:1008700090E00895411174C02BB381E090E002C074
:10088000880F991F6A95E2F7809582238BBB81E0E0
:1008900090E00895413069F428B381E090E002C00F
:1008A000880F991F6A95E2F7822B88BB81E090E060
:1008B0000895411158C028B381E090E002C0880F2C
:1008C000991F6A95E2F78095822388BB81E090E0CA
:1008D0000895413069F425B381E090E002C0880FAB
:1008E000991F6A95E2F7822B85BB81E090E008951D
:1008F00041113CC025B381E090E002C0880F991FF0
:100900006A95E2F78095822385BB81E090E00895A7
:10091000413069F422B381E090E002C0880F991F52
:100920006A95E2F7822B82BB81E090E00895411145
:1009300020C022B381E090E002C0880F991F6A9521
:10094000E2F78095822382BB81E090E0089580E009
:1009500090E0089580E090E0089580E090E00895B0
:1009600080E090E0089580E090E0089580E090E0DD
:10097000089580E090E00895843000F5813061F0C2
:1009800028F0823079F0833099F01BC089B3FB01E5
:10099000808381E090E0089586B3FB01808381E04D
:1009A00090E0089583B3FB01808381E090E0089597
:1009B00080B3FB01808381E090E0089580E090E0C7
:1009C000089580E090E008958430F8F5683008F0EC
:1009D0003FC0813099F028F08230E9F0833041F156
:1009E0003AC089B390E002C0959587956A95E2F781
:1009F0008170FA01808381E090E0089586B390E0F1
:100A000002C0959587956A95E2F78170FA01808317
:100A100081E090E0089583B390E002C095958795BA
:100A20006A95E2F78170FA01808381E090E0089591
:100A300080B390E002C0959587956A95E2F7817042
:100A4000FA01808381E090E0089580E090E00895CD
:100A500080E090E0089580E090E00895379A86B1B4
:100A6000876086B93F9A87B187B93D980895369ACD
:100A70000895349BFECF84B125B1349A90E0922B37
:100A8000089597B1907E97B997B1892B87B908954A
:100A900097B1907E97B997B1892B87B90895359A08
:100AA000089590B79F7190BF90B78295880F807E10
:100AB000982B90BF08951FBC82E08EBD08950F93C0
:100AC0001F938B019C010130110581E0280731053E
:100AD000F8F0B901A8011DBC1CBC08B602FEFDCF90
:100AE00088B7846088BF615071094130510581E049
:100AF0006807710580F7D901C8010197A140B109C4
:100B00008827992721503109081B190B2A0B3B0B09
:100B10000115110581E02807310530F41195019583
:100B200011091DBD0CBD07C001151105214031057E
:100B300011F41DBC1CBC08B602FEFDCF88B7846052
:100B400088BF1F910F910895A1E21A2EAA1BBB1B0B
:100B5000FD010DC0AA1FBB1FEE1FFF1FA217B30789
:100B6000E407F50720F0A21BB30BE40BF50B661F9F
:100B7000771F881F991F1A9469F760957095809563
:100B800090959B01AC01BD01CF010895A29FB001DA
:100B9000B39FC001A39F700D811D1124911DB29FB1
:100BA000700D811D1124911D0895689401C0E89471
:100BB0008F929F92CF93DF930E94E305DF91CF91B5
:100BC0009F908F90089588249924F401E401B0E463
:100BD0009F93AA279A158B049C04ED05FE05CF056B
:100BE000D007A10798F4AD2FDC2FCF2FFE2FE92DD2
:100BF000982C892E982F872F762F652F542F432FCF
:100C0000322F2227B85031F7BF9127C01B2EBF913A
:100C1000BB27220F331F441F551F661F771F881FD6
:100C2000991F881C991CEE1FFF1FCC1FDD1FAA1FD8
:100C3000BB1F8A149B04EC05FD05CE05DF05A0074C
:100C4000B10748F08A189B08EC09FD09CE09DF09B5
:100C5000A00BB10B21601A94E1F62EF49401AF01C0
:100C6000BE01CD01000C08950F93083090F0982F2D
:100C7000872F762F652F542F432F322F222708508E
:100C8000F4CF220F331F441F551F661F771F881F85
:100C9000991F0A95B2F70F9108952A0D3B1D4C1D1F
:100CA0005D1D6E1D7F1D801F911F08950024A7FDEF
:100CB00000942A1730054005500560057005800531
:080CC00090050895F894FFCFA0
:100CC8000000010107000000000000001F0A0E00DC
:100CD80000040A011F00000007041F0004040404A4
:100CE800000000000000000054656D7065726174BA
:060CF8007572653A000070
:00000001FF
